{
  "transactions": [
    {
      "hash": null,
      "transactionType": "CALL",
      "contractName": null,
      "contractAddress": "0x4337084d9e255ff0702461cf8895ce9e3b5ff108",
      "function": "depositTo(address)",
      "arguments": [
        "0x106d4Ac58960ACE69fD9549C3f326aA6a66A3a92"
      ],
      "transaction": {
        "from": "0xc7f74d11e24c01f5aadc06842fbcb6b35144ecaf",
        "to": "0x4337084d9e255ff0702461cf8895ce9e3b5ff108",
        "gas": "0xf653",
        "value": "0x16345785d8a0000",
        "input": "0xb760faf9000000000000000000000000106d4ac58960ace69fd9549c3f326aa6a66a3a92",
        "nonce": "0xc",
        "chainId": "0xaa36a7"
      },
      "additionalContracts": [],
      "isFixedGasLimit": false
    }
  ],
  "receipts": [],
  "libraries": [],
  "pending": [],
  "returns": {},
  "timestamp": 1776370703338,
  "chain": 11155111,
  "commit": "cc60be8"
}