{
  "transactions": [
    {
      "hash": "0xbee47fe48c2bd23335c25678b12a1121783849656b0568aaa221771f541f559c",
      "transactionType": "CALL",
      "contractName": null,
      "contractAddress": "0x4337084d9e255ff0702461cf8895ce9e3b5ff108",
      "function": "depositTo(address)",
      "arguments": [
        "0x106d4Ac58960ACE69fD9549C3f326aA6a66A3a92"
      ],
      "transaction": {
        "from": "0xc7f74d11e24c01f5aadc06842fbcb6b35144ecaf",
        "to": "0x4337084d9e255ff0702461cf8895ce9e3b5ff108",
        "gas": "0xf653",
        "value": "0x16345785d8a0000",
        "input": "0xb760faf9000000000000000000000000106d4ac58960ace69fd9549c3f326aa6a66a3a92",
        "nonce": "0xd",
        "chainId": "0xaa36a7"
      },
      "additionalContracts": [],
      "isFixedGasLimit": false
    }
  ],
  "receipts": [
    {
      "status": "0x1",
      "cumulativeGasUsed": "0xc8dc07",
      "logs": [
        {
          "address": "0x4337084d9e255ff0702461cf8895ce9e3b5ff108",
          "topics": [
            "0x2da466a7b24304f47e87fa2e1e5a81b9831ce54fec19055ce277ca2f39ba42c4",
            "0x000000000000000000000000106d4ac58960ace69fd9549c3f326aa6a66a3a92"
          ],
          "data": "0x000000000000000000000000000000000000000000000000016345785d8a0000",
          "blockHash": "0x4402d4627f7c52caf4827d2d5b03196b9ef0b39e319f39477a1475a1440a4d85",
          "blockNumber": "0xa2dd1c",
          "blockTimestamp": "0x69e1441c",
          "transactionHash": "0xbee47fe48c2bd23335c25678b12a1121783849656b0568aaa221771f541f559c",
          "transactionIndex": "0x4b",
          "logIndex": "0x153",
          "removed": false
        }
      ],
      "logsBloom": "0x00000000000000000000000000000000000000000000000000000000000000000000000000000000000000000000000000000000000000000000000000000100000000000000000000000000000002000000000000000000000000000000200000000000000000000400000000000000000000000000000000000000000200000000000000000000000000000000000000000000000000000000000000000000000000000000000000000000000000000000000000000000000000000000000000000000000000000000000000000000000000000000200000000010000000000040000400000000000000000000000000000000000000000000000000000000",
      "type": "0x2",
      "transactionHash": "0xbee47fe48c2bd23335c25678b12a1121783849656b0568aaa221771f541f559c",
      "transactionIndex": "0x4b",
      "blockHash": "0x4402d4627f7c52caf4827d2d5b03196b9ef0b39e319f39477a1475a1440a4d85",
      "blockNumber": "0xa2dd1c",
      "gasUsed": "0xb256",
      "effectiveGasPrice": "0x6c166e",
      "blobGasUsed": "0x0",
      "from": "0xc7f74d11e24c01f5aadc06842fbcb6b35144ecaf",
      "to": "0x4337084d9e255ff0702461cf8895ce9e3b5ff108",
      "contractAddress": null
    }
  ],
  "libraries": [],
  "pending": [],
  "returns": {},
  "timestamp": 1776370719164,
  "chain": 11155111,
  "commit": "cc60be8"
}