{
  "transactions": [
    {
      "hash": "0x82c5a201e444ee035c8334f819a9b212304b3882066df38e081fe601780c0589",
      "transactionType": "CALL",
      "contractName": null,
      "contractAddress": "0x433709009b8330fda32311df1c2afa402ed8d009",
      "function": "depositTo(address)",
      "arguments": [
        "0xf071F9299B90c93E8CB93C7Ae6F8f0F18a0C5846"
      ],
      "transaction": {
        "from": "0xc7f74d11e24c01f5aadc06842fbcb6b35144ecaf",
        "to": "0x433709009b8330fda32311df1c2afa402ed8d009",
        "gas": "0xf671",
        "value": "0x16345785d8a0000",
        "input": "0xb760faf9000000000000000000000000f071f9299b90c93e8cb93c7ae6f8f0f18a0c5846",
        "nonce": "0xb",
        "chainId": "0xaa36a7"
      },
      "additionalContracts": [],
      "isFixedGasLimit": false
    }
  ],
  "receipts": [
    {
      "status": "0x1",
      "cumulativeGasUsed": "0x11c315e",
      "logs": [
        {
          "address": "0x433709009b8330fda32311df1c2afa402ed8d009",
          "topics": [
            "0x2da466a7b24304f47e87fa2e1e5a81b9831ce54fec19055ce277ca2f39ba42c4",
            "0x000000000000000000000000f071f9299b90c93e8cb93c7ae6f8f0f18a0c5846"
          ],
          "data": "0x000000000000000000000000000000000000000000000000016345785d8a0000",
          "blockHash": "0x1c9e2cf970175b44a36547a936d3bb67ecc3b67fccdb3fc56e73e503cb4fe828",
          "blockNumber": "0xa2dd14",
          "blockTimestamp": "0x69e143b0",
          "transactionHash": "0x82c5a201e444ee035c8334f819a9b212304b3882066df38e081fe601780c0589",
          "transactionIndex": "0x4d",
          "logIndex": "0x1e4",
          "removed": false
        }
      ],
      "logsBloom": "0x00000000000000000000000000000000000000400200000000000004000000000000000000008000000000000000000000000000000000000000000000000000000000000000000000000000000001000000000000000000000000000000200000000000000000000000000000000000000000000000000000000000000200000000000000000000000000000000000000000000000000000000000000000000000000000000000000000000000000000000000000000000000000000000000000000000000000000000000000000000000000000000000000000000000000000040000000400000000000000000000000000000000000000000000000000000",
      "type": "0x2",
      "transactionHash": "0x82c5a201e444ee035c8334f819a9b212304b3882066df38e081fe601780c0589",
      "transactionIndex": "0x4d",
      "blockHash": "0x1c9e2cf970175b44a36547a936d3bb67ecc3b67fccdb3fc56e73e503cb4fe828",
      "blockNumber": "0xa2dd14",
      "gasUsed": "0xb26c",
      "effectiveGasPrice": "0x6a0d92",
      "blobGasUsed": "0x0",
      "from": "0xc7f74d11e24c01f5aadc06842fbcb6b35144ecaf",
      "to": "0x433709009b8330fda32311df1c2afa402ed8d009",
      "contractAddress": null
    }
  ],
  "libraries": [],
  "pending": [],
  "returns": {},
  "timestamp": 1776370612220,
  "chain": 11155111,
  "commit": "cc60be8"
}