{
  "transactions": [
    {
      "hash": "0xca47d8719e9090dcab09d415e8117b713699ebeaa6293af32384f9a0893f7602",
      "transactionType": "CALL",
      "contractName": null,
      "contractAddress": "0xbbbc86034c5371e098163a39ec1bb8b2f015bb74",
      "function": "addStake(uint32)",
      "arguments": [
        "3600"
      ],
      "transaction": {
        "from": "0xc7f74d11e24c01f5aadc06842fbcb6b35144ecaf",
        "to": "0xbbbc86034c5371e098163a39ec1bb8b2f015bb74",
        "gas": "0x14a60",
        "value": "0x16345785d8a0000",
        "input": "0x0396cb600000000000000000000000000000000000000000000000000000000000000e10",
        "nonce": "0x14",
        "chainId": "0xaa36a7"
      },
      "additionalContracts": [],
      "isFixedGasLimit": false
    },
    {
      "hash": "0x1d207f67a6e03e9546a7730a5d6e444af2810906e9acaf8b0441825465c405e4",
      "transactionType": "CALL",
      "contractName": null,
      "contractAddress": "0x4337084d9e255ff0702461cf8895ce9e3b5ff108",
      "function": "depositTo(address)",
      "arguments": [
        "0xBbbc86034C5371e098163A39eC1bb8B2f015bB74"
      ],
      "transaction": {
        "from": "0xc7f74d11e24c01f5aadc06842fbcb6b35144ecaf",
        "to": "0x4337084d9e255ff0702461cf8895ce9e3b5ff108",
        "gas": "0xf653",
        "value": "0x16345785d8a0000",
        "input": "0xb760faf9000000000000000000000000bbbc86034c5371e098163a39ec1bb8b2f015bb74",
        "nonce": "0x15",
        "chainId": "0xaa36a7"
      },
      "additionalContracts": [],
      "isFixedGasLimit": false
    }
  ],
  "receipts": [
    {
      "status": "0x1",
      "cumulativeGasUsed": "0xcc895f",
      "logs": [
        {
          "address": "0x4337084d9e255ff0702461cf8895ce9e3b5ff108",
          "topics": [
            "0xa5ae833d0bb1dcd632d98a8b70973e8516812898e19bf27b70071ebc8dc52c01",
            "0x000000000000000000000000bbbc86034c5371e098163a39ec1bb8b2f015bb74"
          ],
          "data": "0x000000000000000000000000000000000000000000000000016345785d8a00000000000000000000000000000000000000000000000000000000000000000e10",
          "blockHash": "0x162a0878c118de962998396d0b735c4f3127695ab77c60843a81fe35de682ce3",
          "blockNumber": "0xa52548",
          "blockTimestamp": "0x69ffa884",
          "transactionHash": "0xca47d8719e9090dcab09d415e8117b713699ebeaa6293af32384f9a0893f7602",
          "transactionIndex": "0x2c",
          "logIndex": "0xef",
          "removed": false
        }
      ],
      "logsBloom": "0x00000000000000000000000000000000000000000000000000000000000000000000000000000000000000000040000000000000000000000000000000000000000000000000000000000000000002000000000000000000000000000000000000100000000000000000000000000000000000000000000000000000000000000000000000000000000000000000000000000000000000000000000000000000000000000000000000000000000000000000000000000000000000000000000000200000000000000000000000000000000040000000200000000010000000000100000000000000000000000000000000000200000000000000000000000000",
      "type": "0x2",
      "transactionHash": "0xca47d8719e9090dcab09d415e8117b713699ebeaa6293af32384f9a0893f7602",
      "transactionIndex": "0x2c",
      "blockHash": "0x162a0878c118de962998396d0b735c4f3127695ab77c60843a81fe35de682ce3",
      "blockNumber": "0xa52548",
      "gasUsed": "0xef30",
      "effectiveGasPrice": "0xf424f",
      "blobGasUsed": "0x0",
      "from": "0xc7f74d11e24c01f5aadc06842fbcb6b35144ecaf",
      "to": "0xbbbc86034c5371e098163a39ec1bb8b2f015bb74",
      "contractAddress": null
    },
    {
      "status": "0x1",
      "cumulativeGasUsed": "0xcd3bb5",
      "logs": [
        {
          "address": "0x4337084d9e255ff0702461cf8895ce9e3b5ff108",
          "topics": [
            "0x2da466a7b24304f47e87fa2e1e5a81b9831ce54fec19055ce277ca2f39ba42c4",
            "0x000000000000000000000000bbbc86034c5371e098163a39ec1bb8b2f015bb74"
          ],
          "data": "0x000000000000000000000000000000000000000000000000016345785d8a0000",
          "blockHash": "0x162a0878c118de962998396d0b735c4f3127695ab77c60843a81fe35de682ce3",
          "blockNumber": "0xa52548",
          "blockTimestamp": "0x69ffa884",
          "transactionHash": "0x1d207f67a6e03e9546a7730a5d6e444af2810906e9acaf8b0441825465c405e4",
          "transactionIndex": "0x2d",
          "logIndex": "0xf0",
          "removed": false
        }
      ],
      "logsBloom": "0x00000000000000000000000000000000000000000000000000000000000000000000000000000000000000000040000000000000000000000000000000000000000000000000000000000000000002000000000000000000000000000000200000100000000000000000000000000000000000000000000000000000000200000000000000000000000000000000000000000000000000000000000000000000000000000000000000000000000000000000000000000000000000000000000000200000000000000000000000000000000000000000200000000010000000000040000000000000000000000000000000000000000000000000000000000000",
      "type": "0x2",
      "transactionHash": "0x1d207f67a6e03e9546a7730a5d6e444af2810906e9acaf8b0441825465c405e4",
      "transactionIndex": "0x2d",
      "blockHash": "0x162a0878c118de962998396d0b735c4f3127695ab77c60843a81fe35de682ce3",
      "blockNumber": "0xa52548",
      "gasUsed": "0xb256",
      "effectiveGasPrice": "0xf424f",
      "blobGasUsed": "0x0",
      "from": "0xc7f74d11e24c01f5aadc06842fbcb6b35144ecaf",
      "to": "0x4337084d9e255ff0702461cf8895ce9e3b5ff108",
      "contractAddress": null
    }
  ],
  "libraries": [],
  "pending": [],
  "returns": {},
  "timestamp": 1778362504117,
  "chain": 11155111,
  "commit": "39ecc8e"
}